:100778004E6F772054656D3A2020202E202043208C
:100788000054483A202020432020544C3A2020206E
:0207980043001C
:0C080100010D00010800010928010A0A8D
:0B080E00EF1FAC0670011E4C70F622BC
:0F06FA008F807F017E00120709D2A67F017E004C
:10070900D3EF9400EE940040147D6E7C00ED1D70D3
:0D071900011CED4C70F7EF1F70E61E80E331
:0107260022B0
:10075000E4FDD2B77F08FE12080EC2B77F507E00BC
:1007600012080ED2B77F0E7E0012080EA2B7E43335
:08077000FD7F147E0002080E5B
:1007B900E4FB7D08C2B7EBC313FBD2B730B70343E1
:0D07C90003807F047E0012080EDDE9AF03FF
:0107D6002200
:0207D700AD076C
:1007D9007B08C2B7ED1392B77F057E0012080ED2CF
:0707E900B7EDC313FDDBEBCC
:0107F00022E6
:1005B800E4FAFFFDFCF513F512F511F510120750DA
:1005C8007FCC1207D77F441207D71207507FCC126F
:1005D80007D77FBE1207D71207B9AA071207B9AD06
:1005E80007EDFCEAFDE4120211E4FBFA7980783D9C
:1005F8001201068F138E128D118C10E4FFFE7D20E0
:100608007C41AB13AA12A911A810120106E4FBFA47
:09061800F9783F12001512024AA4
:0106210022B6
:10079A001205B8EF24FBF50CEE34FFF50BD3E50C8C
:0F07AA0094B0E50B94044006750B04750CB02257
:08000300C2A71206FAC2A622F0
:100727007FC3120003E50975F00A1202CB2430FFDC
:10073700120748E50975F00A1202CBAFF0EF243033
:01074700FFB2
:08074800D2A71206FAC2A62294
:100679007F381200037F0C1200037F061200037FEC
:10068900011200037F80120003E4FBEB90077893CB
:10069900FF1207487F037E001207090BBB10EC7F8E
:1006A900C0120003E4FBEB90078993FF1207487F10
:0A06B900037E001207090BBB10ECD2
:0106C3002214
:10046E00E508600302052B7F88120003AE0BAF0C6C
:10047E007C037DE81202ED120744AE0BAF0C7C0339
:10048E007DE81202ED7E007F64CFCDCFCECCCE12B2
:10049E0002ED120744AE0BAF0C7C037DE81202EDA9
:1004AE007E007F64CFCDCFCECCCE1202ED7E007F0C
:1004BE000ACFCDCFCECCCE1202ED1207447F8C12D6
:1004CE000003AE0BAF0C7C037DE81202ED7E007FC5
:1004DE0064CFCDCFCECCCE1202ED7E007F0ACFCD33
:1004EE00CFCECCCE1202EDED2430FF1207487F8D19
:1004FE001200037FDF1207481207277FDF1207481B
:10050E007FCC120003E50A75F00A1202CB2430FFED
:0E051E00120748E50A12073C7FDF1207482249
:1007F100758901758C3C758AB0D2AFD28CD2A92291
:1003500020B138C2B67F0A7E0012070920B10C0511
:1003600008E508B40303E4F508D2B620B11DE5089A
:1003700070047F0C8010E508B401047FC480027F04
:10038000CD1200037F0F12000380E020B32CE5089C
:1003900064017026C2B67F0AFE12070920B3180551
:1003A00009C3E509648094E34003750963120727D4
:1003B0007FC4120003D2B630B3FD20B22AE5086430
:1003C000017024C2B67F0AFE12070920B216150971
:1003D000E509B50A05E50A04F5091207277FC412E5
:1003E0000003D2B630B2FD20B33FE5086402703995
:1003F000C2B67F0AFE12070920B32B050AE50AB52B
:100400000905E50914F50A7FCC120003E50A75F029
:100410000A1202CB2430FF120748E50A12073C7F7C
:10042000CD120003D2B630B3FD20B241E50864021C
:10043000703BC2B67F0AFE12070920B22D150AD3FF
:10044000E50A648094805003E4F50A7FCC1200032F
:10045000E50A75F00A1202CB2430FF120748E50ABC
:0E04600012073C7FCD120003D2B630B2FD224F
:10062200E50DC3940A4005B201E4F50DE5087040FA
:10063200AE0BAF0CFC7D0A1202EDAD09ED3395E075
:10064200FCC3EF9DEE9C400DC292D294300103C2D6
:10065200B622D2B622AD0AED3395E0FCC3EF9DEE91
:100662009C500DC294D292300103C2B622D2B6225D
:07067200D2B6D292D294220D
:1006C4001207051206791207051207F1E4F50EF573
:1006D4000F12079A120705050FE50F7002050EC3E6
:1006E4009464E50E940040E912046E12035012065D
:0606F4002212079A80F2B9
:03000B00020819CF
:09081900758C3C758AB0050D32A6
:10000E000202B6E86480F8E933E83360110460F068
:10001E00ED33EC337009E8FCE9FDEAFEEBFF220458
:10002E0060DED3EB9FEA9EE99DE8C2E78CF0C2F753
:10003E0095F0400CE8CCF8E9CDF9EACEFAEBCFFB1F
:10004E0012028185D0F05804700320D5B3E80470F5
:10005E00075002B2D50202C092D5EC0460F7E4CC90
:10006E00C0E0C398F8603B94186008400DD0E0FBE8
:10007E00020298E4FBFAC9FC8028E830E406E4C9E1
:10008E00FBE4CAFCE830E305E4C9CACBFCE854073C
:10009E006010F8C3E913F9EA13FAEB13FBEC13FC47
:1000AE00D8F130F52FC3E49CFCEF9BFFEE9AFEEDEA
:1000BE0099FDD0E0FBEF4E4D4C701222DB03020295
:1000CE00BDEC2CFCEF33FFEE33FEED33FDED30E7F0
:1000DE00EB020298EF2BFFEE3AFEED39FDD0E0FB7E
:1000EE0050130BBB00030202C0ED13FDEE13FEEF27
:0800FE0013FFEC13FC02029851
:10010600EC4D6011E8497017ED33EC3304600DE4F3
:10011600FCFFFEFD22E933E8330470F80202B61252
:10012600028158046009E4CC248150062850090253
:1001360002C02840030202BDC0E0EB4A7044B98009
:1001460006D0E0FB0202ACEF4E701CBD8008EBFF50
:10015600EAFEE9FD80EBE98DF0A4FEE5F00201EF91
:10016600E9CDF9EAFEEBFFEF89F0A4FCE5F0CE89D4
:10017600F0A42EFFE435F0CD89F0A42DFEE435F091
:100186008067EF4E7005BD80D780C3EF8BF0A4ACBF
:10019600F0EE8BF0A42CFCE435F0F8EF8AF0A42CFA
:1001A600E5F038FCE433CB8DF0A42CFCE5F03BF80D
:1001B600EE8AF0A42CFCE5F038F8E433CF89F0A4FD
:1001C6002CFCE5F038CF3400CE89F0A42FFFE5F003
:1001D6003EFEE433C98DF0A42EFEE5F039CD8AF05B
:1001E600A42FFFE5F03EFEE43DFD33D0E0FB5007D3
:1001F6000BBB000F0202C0EC2CFCEF33FFEE33FE0C
:06020600ED33FD02029839
:10020C0075F020800E75F010800575F0087D007E6D
:10021C00007F003392D530D503120342EC334010EB
:10022C00EF33FFEE33FEED33FDEC33FCD5F0ED2276
:0E023C00E5F0247EA2D513CC92E7CDCEFF22B2
:10024A00EDD2E7CD33EC3392D524814006E4FFFEAC
:10025A00FDFC22FCE4CFCECDCC24E0501174FF800B
:10026A00EDC3CC13CCCD13CDCE13CECF13CF0470A8
:07027A00F030D5DE02034263
:10028100E9D2E7C933E833F892D5EDD2E7CD33ECC3
:0702910033FC5002B2D5223C
:10029800EC30E7100FBF000C0EBE00080DBD0004C7
:1002A8000BEB6014A2D5EB13FCED92E7FD2274FF73
:1002B800FCFDFEFF22E480F8A2D574FF13FC7D80CC
:0302C800E480EFE0
:0300000002052CCA
:0C052C00787FE4F6D8FD7581200205738D
:1002CB00C2D530F707B2D563F0FF05F030E70CB2BB
:1002DB00D5F4048463F0FF05F080018430D502F47B
:0202EB000422EB
:1002ED00BC000BBE0029EF8DF084FFADF022E4CCF5
:1002FD00F875F008EF2FFFEE33FEEC33FCEE9DECBE
:10030D00984005FCEE9DFE0FD5F0E9E4CEFD22ED03
:10031D00F8F5F0EE8420D21CFEADF075F008EF2F4D
:10032D00FFED33FD4007985006D5F0F222C398FD3E
:05033D000FD5F0EA22DB
:0E034200C3E49FFFE49EFEE49DFDE49CFC22CC
:100538000206C4E493A3F8E493A34003F68001F20F
:1005480008DFF48029E493A3F85407240CC8C333C4
:10055800C4540F4420C8834004F456800146F6DF93
:10056800E4800B0102040810204080900801E47E1A
:10057800019360BCA3FF543F30E509541FFEE49388
:10058800A360010ECF54C025E060A840B8E493A34F
:10059800FAE493A3F8E493A3C8C582C8CAC583CA7A
:1005A800F0A3C8C582C8CAC583CADFE9DEE780BE32
:01080D0000EA
:00000001FF
