:1007F0004E6F772054656D3A2020202E2020432014
:100800000054483A202020432020544C3A202020F5
:020810004300A3
:0C084100010D00010800010928010A1E39
:0B084E00EF1FAC0670011E4C70F6227C
:0F0725008F807F017E00120734D2A67F017E00F5
:10073400D3EF9400EE940040147D6E7C00ED1D70A8
:0D074400011CED4C70F7EF1F70E61E80E306
:010751002285
:10077B00E4FDD2947F08FE12084EC2947F507E0097
:10078B0012084ED2947F0E7E0012084EA294E433D0
:08079B00FD7F147E0002084EF0
:1007A300E4FB7D08EDD39400748094804017C294D9
:1007B300EB13FBD2943094034303807F047E001237
:0707C300084E1D80DFAF03AB
:0107CA00220C
:0207CB00AD0778
:1007CD007B08EBD39400748094804016C294ED1393
:1007DD0092947F057E0012084ED294EDC313FD1B3B
:0207ED0080E0AA
:0107EF0022E7
:1005CE00E4FAFFFDFCF513F512F511F51012077B99
:1005DE007FCC1207CB7F441207CB12077B7FCC1246
:1005EE0007CB7FBE1207CB1207A3AA071207A3AD34
:1005FE0007EDFCEAFDE4120211E4FBFA7980783D86
:10060E001201068F138E128D118C10E4FFFE7D20C9
:10061E007C41AB13AA12A911A810120106E4FBFA31
:09062E00F9783F12001502024A9E
:100812001205CEEF24FBF50CEE34FFF50BD3E50CFD
:0F08220094B0E50B94044006750B04750CB022DE
:08000300C2A7120725C2A622C4
:100752007FC3120003E50975F00A1202CB2430FFB1
:10076200120773E50975F00A1202CBAFF0EF2430DD
:01077200FF87
:08077300D2A7120725C2A6223D
:100637007F381200037F0C1200037F061200037F2E
:10064700011200037F80120003E4FBEBC3941074D4
:100657008094805013EB9007F093FF1207737F038A
:100667007E001207340B80E37FC0120003E4FBEB2C
:10067700C39410748094805013EB90080193FF1279
:0C06870007737F037E001207340B80E332
:010693002244
:10048400E50860030205417F88120003AE0BAF0C40
:100494007C037DE81202ED12076FAE0BAF0C7C03F8
:1004A4007DE81202ED7E007F64CFCDCFCECCCE129C
:1004B40002ED12076FAE0BAF0C7C037DE81202ED68
:1004C4007E007F64CFCDCFCECCCE1202ED7E007FF6
:1004D4000ACFCDCFCECCCE1202ED12076F7F8C1295
:1004E4000003AE0BAF0C7C037DE81202ED7E007FAF
:1004F40064CFCDCFCECCCE1202ED7E007F0ACFCD1D
:10050400CFCECCCE1202EDED2430FF1207737F8DD7
:100514001200037FDF1207731207527FDF12077383
:100524007FCC120003E50A75F00A1202CB2430FFD7
:0E053400120773E50A1207677FDF12077322B2
:10083100758901758C3C758AB0D2AFD28CD2A92250
:1003500020903CC2957F0A7E0012073420900C0545
:1003600008E50864037002F508D295209021E5089D
:10037000FB7A0070047F0C8011EB64014A70047FEB
:10038000C480027FCD1200037F0F12000380DC20A7
:100390009135E5086401702FC2957F0AFE1207347B
:1003A0002091210509AF09EF3395E0FEC3EF946377
:1003B000EE6480948040037509631207527FC41273
:1003C0000003D2953091FD20922AE5086401702443
:1003D000C2957F0AFE1207342092161509E509B569
:1003E0000A05E50A04F5091207527FC4120003D278
:1003F000953092FD20913FE50864027039C2957FE7
:100400000AFE12073420912B050AE50AB50905E515
:100410000914F50A7FCC120003E50A75F00A1202EE
:10042000CB2430FF120773E50A1207677FCD120055
:1004300003D2953091FD20924AE50864027044C2CF
:10044000957F0AFE120734209236150AAF0AEF3361
:1004500095E0FED3EF9400EE648094805003E4F5C1
:100460000A7FCC120003E50A75F00A1202CB243091
:10047000FF120773E50A1207677FCD120003D295BA
:040480003092FD2297
:10069400C3E50D940A748094804005B201E4F50D1D
:1006A400E5087040AE0BAF0CFC7D0A1202EDAD09FB
:1006B400ED3395E0FCC3EF9DEE9C400DC296D297BE
:1006C400300103C29522D29522AD0AED3395E0FCA8
:1006D400C3EF9DEE9C500DC297D296300103C29594
:0B06E40022D29522D295D296D2972206
:1006EF00120730120637120730120831E4F50EF5F3
:1006FF000F120812120730050FE50F7002050EC317
:10070F009464E50E940040E912048412035012061B
:06071F009412081280F2A2
:03000B000208598F
:09085900758C3C758AB0050D3266
:10000E000202B6E86480F8E933E83360110460F068
:10001E00ED33EC337009E8FCE9FDEAFEEBFF220458
:10002E0060DED3EB9FEA9EE99DE8C2E78CF0C2F753
:10003E0095F0400CE8CCF8E9CDF9EACEFAEBCFFB1F
:10004E0012028185D0F05804700320D5B3E80470F5
:10005E00075002B2D50202C092D5EC0460F7E4CC90
:10006E00C0E0C398F8603B94186008400DD0E0FBE8
:10007E00020298E4FBFAC9FC8028E830E406E4C9E1
:10008E00FBE4CAFCE830E305E4C9CACBFCE854073C
:10009E006010F8C3E913F9EA13FAEB13FBEC13FC47
:1000AE00D8F130F52FC3E49CFCEF9BFFEE9AFEEDEA
:1000BE0099FDD0E0FBEF4E4D4C701222DB03020295
:1000CE00BDEC2CFCEF33FFEE33FEED33FDED30E7F0
:1000DE00EB020298EF2BFFEE3AFEED39FDD0E0FB7E
:1000EE0050130BBB00030202C0ED13FDEE13FEEF27
:0800FE0013FFEC13FC02029851
:10010600EC4D6011E8497017ED33EC3304600DE4F3
:10011600FCFFFEFD22E933E8330470F80202B61252
:10012600028158046009E4CC248150062850090253
:1001360002C02840030202BDC0E0EB4A7044B98009
:1001460006D0E0FB0202ACEF4E701CBD8008EBFF50
:10015600EAFEE9FD80EBE98DF0A4FEE5F00201EF91
:10016600E9CDF9EAFEEBFFEF89F0A4FCE5F0CE89D4
:10017600F0A42EFFE435F0CD89F0A42DFEE435F091
:100186008067EF4E7005BD80D780C3EF8BF0A4ACBF
:10019600F0EE8BF0A42CFCE435F0F8EF8AF0A42CFA
:1001A600E5F038FCE433CB8DF0A42CFCE5F03BF80D
:1001B600EE8AF0A42CFCE5F038F8E433CF89F0A4FD
:1001C6002CFCE5F038CF3400CE89F0A42FFFE5F003
:1001D6003EFEE433C98DF0A42EFEE5F039CD8AF05B
:1001E600A42FFFE5F03EFEE43DFD33D0E0FB5007D3
:1001F6000BBB000F0202C0EC2CFCEF33FFEE33FE0C
:06020600ED33FD02029839
:10020C0075F020800E75F010800575F0087D007E6D
:10021C00007F003392D530D503120342EC334010EB
:10022C00EF33FFEE33FEED33FDEC33FCD5F0ED2276
:0E023C00E5F0247EA2D513CC92E7CDCEFF22B2
:10024A00EDD2E7CD33EC3392D524814006E4FFFEAC
:10025A00FDFC22FCE4CFCECDCC24E0501174FF800B
:10026A00EDC3CC13CCCD13CDCE13CECF13CF0470A8
:07027A00F030D5DE02034263
:10028100E9D2E7C933E833F892D5EDD2E7CD33ECC3
:0702910033FC5002B2D5223C
:10029800EC30E7100FBF000C0EBE00080DBD0004C7
:1002A8000BEB6014A2D5EB13FCED92E7FD2274FF73
:1002B800FCFDFEFF22E480F8A2D574FF13FC7D80CC
:0302C800E480EFE0
:03000000020542B4
:0C054200787FE4F6D8FD75812002058961
:1002CB00C2D530F707B2D563F0FF05F030E70CB2BB
:1002DB00D5F4048463F0FF05F080018430D502F47B
:0202EB000422EB
:1002ED00BC000BBE0029EF8DF084FFADF022E4CCF5
:1002FD00F875F008EF2FFFEE33FEEC33FCEE9DECBE
:10030D00984005FCEE9DFE0FD5F0E9E4CEFD22ED03
:10031D00F8F5F0EE8420D21CFEADF075F008EF2F4D
:10032D00FFED33FD4007985006D5F0F222C398FD3E
:05033D000FD5F0EA22DB
:0E034200C3E49FFFE49EFEE49DFDE49CFC22CC
:10054E000206EFE493A3F8E493A34003F68001F2CE
:10055E0008DFF48029E493A3F85407240CC8C333AE
:10056E00C4540F4420C8834004F456800146F6DF7D
:10057E00E4800B0102040810204080900841E47EC4
:10058E00019360BCA3FF543F30E509541FFEE49372
:10059E00A360010ECF54C025E060A840B8E493A339
:1005AE00FAE493A3F8E493A3C8C582C8CAC583CA64
:1005BE00F0A3C8C582C8CAC583CADFE9DEE780BE1C
:01084D0000AA
:00000001FF
